:100000000C9463000C948B000C948B000C942204D1
:100010000C9422040C9422040C948B000C948B00FE
:100020000C948B000C948B000C948B000C948B0024
:100030000C948B000C948B000C948B000C948B0014
:100040000C9480030C948B000C94F0030C94CA0362
:100050000C948B000C948B000C948B000C948B00F4
:100060000C948B000C948B0000000008000201002F
:100070000003040700000000000000000000000072
:10008000250028002B0000000000240027002A0083
:1000900000000000230026002900040404040404D6
:1000A0000404020202020202030303030303010227
:1000B00004081020408001020408102001020408F6
:1000C00010209C04C80811241FBECFEFD8E0DEBF6B
:1000D000CDBF12E0A0E0B1E0E6EAF9E102C0059090
:1000E0000D92AC32B107D9F723E0ACE2B2E001C027
:1000F0001D92A334B207E1F710E0C2E6D0E004C0DD
:100100002197FE010E940009C136D107C9F70E945C
:100110009C050C94C60C0C94000090E0FC01E8597E
:10012000FF4F3491FC01E255FF4F2491FC01E6564C
:10013000FF4FE491EE2309F43BC0332339F1333010
:1001400091F038F43130A9F0323001F584B58F7D6B
:1001500012C0373091F03830A1F03430B9F48091CA
:1001600080008F7D03C0809180008F778093800016
:100170000DC084B58F7784BD09C08091B0008F77A2
:1001800003C08091B0008F7D8093B000F0E0EE0F4F
:10019000FF1FE458FF4FA591B4918FB7F894EC91ED
:1001A000611103C020952E2301C02E2B2C938FBFED
:1001B00008953FB7F8948091770290917802A091CA
:1001C0007902B0917A0226B5A89B05C02F3F19F09D
:1001D0000196A11DB11D3FBFBA2FA92F982F8827C7
:1001E000820F911DA11DB11DBC01CD0142E0660F22
:1001F000771F881F991F4A95D1F708958F929F9274
:10020000AF92BF92CF92DF92EF92FF926B017C018F
:100210000E94D9004B015C01C114D104E104F10436
:10022000F1F00E94D900DC01CB0188199909AA09D3
:10023000BB09883E9340A105B10570F321E0C21AC5
:10024000D108E108F10888EE880E83E0981EA11C11
:10025000B11CC114D104E104F10419F7DDCFFF9002
:10026000EF90DF90CF90BF90AF909F908F900895C8
:10027000CF92DF92EF92FF920F931F93CF93DF9372
:100280006C017A018B01C0E0D0E0CE15DF0589F06A
:10029000D8016D918D01D601ED91FC910190F08115
:1002A000E02DC6010995892B11F47E0102C021962B
:1002B000ECCFC701DF91CF911F910F91FF90EF908D
:1002C000DF90CF900895FC01538D448D252F30E0B1
:1002D000842F90E0821B930B541710F0CF96089553
:1002E00001970895FC01918D828D981761F0828DA0
:1002F000DF01A80FB11D5D968C91928D9F5F9F735A
:10030000928F90E008958FEF9FEF0895FC01918DFB
:10031000828D981731F0828DE80FF11D858D90E068
:1003200008958FEF9FEF0895FC01918D228D892F05
:1003300090E0805C9F4F821B91098F7399270895ED
:100340008BE792E00E94940121E0892B09F420E0E0
:10035000822F0895FC01848DDF01A80FB11DA35ADF
:10036000BF4F2C91848D90E001968F739927848FD5
:10037000A689B7892C93A089B1898C9180648C93CC
:10038000938D848D981306C00288F389E02D8081B7
:100390008F7D80830895EF92FF920F931F93CF93E9
:1003A000DF93EC0181E0888F9B8D8C8D981305C0C5
:1003B000E889F989808185FD24C0F62E0B8D10E037
:1003C0000F5F1F4F0F731127E02E8C8DE8120CC0AA
:1003D0000FB607FCFACFE889F989808185FFF5CF50
:1003E000CE010E94AA01F1CF8B8DFE01E80FF11D15
:1003F000E35AFF4FF0820B8FEA89FB89808180628C
:1004000007C0EE89FF896083E889F989808180646B
:10041000808381E090E0DF91CF911F910F91FF9059
:10042000EF900895CF93DF93EC01888D8823C9F076
:10043000EA89FB89808185FD05C0A889B9898C91ED
:1004400086FD0FC00FB607FCF5CF808185FFF2CF88
:10045000A889B9898C9185FFEDCFCE010E94AA01B0
:10046000E7CFDF91CF91089580E090E0892B29F0CC
:100470000E94A00181110C940000089520916E0249
:1004800030916F022817390771F490916C028091B6
:100490006D02981741F0E0916C02F0E0E45DFD4FD1
:1004A000808190E008958FEF9FEF089508951F9346
:1004B000CF93DF93DC015C962D913C915D972115E4
:1004C000310539F481E090E013969C938E93129756
:1004D0003DC05196ED91FC91529750969C9150974A
:1004E000892F80951FB75E964C915E9741FB7727C9
:1004F00070F941FD6095F8944081772311F0492B04
:1005000001C048234083E9012197F1F748E0508179
:1005100060FF02C0592B01C058235083E901219785
:10052000F1F76695415099F7772321F0908189235F
:10053000808303C08081982B90831FBF5C968D9130
:100540009C915D970197F1F721E030E0C901DF91BF
:10055000CF911F91089520916E0230916F0228175C
:10056000390771F480916D0220916C0290E0805CFB
:100570009F4F821B910960E470E00E94D8080895A3
:1005800080E090E0089520916E0230916F0228176C
:100590003907B9F490916C0280916D02981789F037
:1005A000E0916C02F0E0E45DFD4F808120916C02EF
:1005B00030E02F5F3F4F2F73332720936C0290E082
:1005C00008958FEF9FEF0895E0916E02F0916F0212
:1005D000E817F90769F4A389B4899C918589809506
:1005E00089238C9310926F0210926E0281E008951D
:1005F00080E00895089580E090E008956115710508
:1006000079F0FB0101900020E9F73197AF01461B1B
:10061000570BDC01ED91FC910280F381E02D0994F0
:1006200080E090E00895BC018BE792E00C94FE021C
:100630000F931F93CF93DF93EC010E94FE028C0176
:100640006AE271E0CE010E94FE02800F911FDF91ED
:10065000CF911F910F9108950E94FD0A0F931F9350
:10066000CF93DF93EC0188819981009729F02A814B
:100670003B812617370788F48B016F5F7F4F0E94FD
:10068000330A009761F0998388831B830A832C8146
:100690003D81232B11F4FC01108281E001C080E038
:1006A000DF91CF911F910F910895EF92FF920F93D9
:1006B0001F93CF93DF93EC017B018A01BA010E9463
:1006C0002E032881398181110DC02115310519F0C2
:1006D000C9010E949B09198218821D821C821B82FB
:1006E0001A8206C01D830C83B701C9010E94140B36
:1006F000CE01DF91CF911F910F91FF90EF90089560
:100700001F920F920FB60F9211242F933F938F9346
:100710009F93AF93BF938091730290917402A091C5
:100720007502B09176023091720223E0230F2D37CB
:1007300020F40196A11DB11D05C026E8230F0296E5
:10074000A11DB11D209372028093730290937402D5
:10075000A0937502B093760280917702909178020F
:10076000A0917902B0917A020196A11DB11D8093EA
:10077000770290937802A0937902B0937A02BF91A6
:10078000AF919F918F913F912F910F900FBE0F903E
:100790001F9018951F920F920FB60F9211242F934E
:1007A0003F934F935F936F937F938F939F93AF93F9
:1007B000BF93EF93FF938BE792E00E94AA01FF9112
:1007C000EF91BF91AF919F918F917F916F915F91C9
:1007D0004F913F912F910F900FBE0F901F90189542
:1007E0001F920F920FB60F9211242F938F939F9306
:1007F000EF93FF93E0918B02F0918C028081E09166
:100800009102F091920282FD12C090818091940237
:100810008F5F8F7320919502821751F0E0919402BF
:10082000F0E0E558FD4F958F8093940201C08081E0
:10083000FF91EF919F918F912F910F900FBE0F908D
:100840001F9018951F920F920FB60F9211242F939D
:100850003F934F935F936F937F938F939F93AF9348
:10086000BF93EF93FF93E0916E02F0916F02309788
:1008700009F451C0968DA685B785858591FF04C082
:100880009C91892329F447C09C91892309F043C096
:10089000A389B4899C918589809589238C938689C5
:1008A00097890197F1F7608D718DA685B78555857C
:1008B00038E020E0CB010197F1F7822F90E0959589
:1008C0008795282F4C91452309F02068315091F7E6
:1008D000868D81FD209580916D0290E001968F7349
:1008E000992730916C02381749F0A0916D02B0E061
:1008F000A45DBD4F2C9380936D0203C0868D8160F3
:10090000868F828D938D0197F1F7A389B4899C918D
:100910008589892B8C93FF91EF91BF91AF919F9126
:100920008F917F916F915F914F913F912F910F9098
:100930000FBE0F901F901895CF92DF92EF92FF920B
:10094000CF93DF9310927E0210927D0268EEC62E46
:1009500063E0D62EE12CF12CC0927F02D09280026F
:10096000E0928102F09282028AE091E090937C0210
:1009700080937B0285EC90E09093880280938702BD
:1009800084EC90E090938A028093890280EC90E05E
:1009900090938C0280938B0281EC90E090938E0276
:1009A00080938D0282EC90E09093900280938F026E
:1009B00086EC90E0909392028093910210929402C0
:1009C000109295021092960210929702109238039C
:1009D0001092370310923A031092390310923C039D
:1009E00010923B0340E050E06CE271E087E393E05B
:1009F0000E94550310921B0310921A03C0921C030D
:100A0000D0921D03E0921E03F0921F038CE191E04F
:100A1000909319038093180310922F0310922E03C2
:100A2000109231031092300310923303109232036C
:100A30001092350310923403609136036E7F6D7F00
:100A4000609336036695617081E0682786E00E94B6
:100A50008D00E4EBF0E02491E0EAF0E0849188235B
:100A600099F090E0880F991FFC01EA57FF4FA5917C
:100A7000B491FC01E458FF4F859194918FB7F8949D
:100A8000EC91E22BEC938FBFE4EBF0E0E491E09388
:100A90002803E0EAF0E0E491F0E0EE0FFF1FE458F5
:100AA000FF4F8591949190932A0380932903E3EB60
:100AB000F0E02491EFE9F0E084918823C1F090E028
:100AC000880F991FFC01EA57FF4FC591D491FC0193
:100AD000E458FF4FA591B4919FB7F8948881E22F15
:100AE000E0958E2388838C91E823EC939FBF8091BF
:100AF000360381FD04C061E085E00E948D0085E041
:100B000080932403E3EBF0E0E491E0932503EFE925
:100B1000F0E0E491F0E0EE0FFF1FE057FF4F85910A
:100B200094919093270380932603DF91CF91FF90B8
:100B3000EF90DF90CF900895CF93DF93CDB7DEB7DE
:100B4000A7970FB6F894DEBF0FBECDBF789484B5DB
:100B5000826084BD84B5816084BD85B5826085BDB9
:100B600085B5816085BD80916E00816080936E0047
:100B70001092810080918100826080938100809139
:100B800081008160809381008091800081608093EA
:100B900080008091B10084608093B1008091B000AA
:100BA00081608093B00080917A00846080937A00A5
:100BB00080917A00826080937A0080917A008160CF
:100BC00080937A0080917A00806880937A001092F6
:100BD000C100E0918B02F0918C0282E08083E09171
:100BE0008702F09188021082E0918902F0918A02D6
:100BF0008FEC808310929302E0918F02F09190022B
:100C000086E08083E0918D02F0918E028081806188
:100C10008083E0918D02F0918E02808188608083D4
:100C2000E0918D02F0918E02808180688083E09156
:100C30008D02F0918E0280818F7D8083109233032C
:100C400010923203109231031092300310922F034E
:100C500010922E0385E690E0909335038093340341
:100C600090912403963108F057C021E230E0309390
:100C70002F0320932E0323E630E03093310320939B
:100C8000300322E430E03093330320933203209189
:100C90006800983050F031E09E3008F430E081E098
:100CA00001C0880F3A95EAF701C084E0822B809357
:100CB0006800983038F09E3040F0963148F020E0DF
:100CC00030E008C02DE630E005C02BE630E002C081
:100CD0002CE630E030932C0320932B03983030F433
:100CE00081E001C0880F9A95EAF70EC0292F30E005
:100CF0009E3018F42850310902C02E50310981E08D
:100D000001C0880F2A95EAF780932D038091340360
:100D1000909135030197F1F780913203909133035D
:100D2000892B21F180916E0290916F0223E088312E
:100D30009207E1F0009711F00E94E40280913603DF
:100D40008E7F8093360310926D0210926C0288E1C0
:100D500093E090936F0280936E02E0912B03F091E9
:100D60002C03908180912D03892B808360ED77E0A7
:100D700080E090E00E94FE0000E010E00115110507
:100D800039F48DE291E00E94130369E371E042C0FF
:100D90000130110539F483E491E00E9413036EE4FD
:100DA00071E038C00230110539F487E591E00E9406
:100DB00013036CE671E02EC00330110539F485E7AA
:100DC00091E00E94130361E871E024C00430110532
:100DD00039F48BE891E00E94130367E971E01AC0CF
:100DE0000530110539F482EA91E00E9413036DEA9F
:100DF00071E010C00630110539F487EB91E00E94D4
:100E0000130361EC71E006C080ED91E00E941303D2
:100E10006BED71E088E193E00E94180364EF71E0EC
:100E200080E090E00E94FE0088E193E00E94AB0227
:100E3000892B51F088E193E00E94C302682F8BE771
:100E400092E00E94CB01F0CF0F5F1F4F08301105D9
:100E500009F094CF63EE71E08BE792E00E941803F3
:100E600069EF71E08BE792E00E94180364EF71E094
:100E700080E090E00E94FE0081E0809371026EE0CD
:100E800072E088E193E00E9418038AE0882E912C9A
:100E9000A12CB12C809171028111A7C080917102A7
:100EA000811173C154C188E193E00E94C3028A306A
:100EB00009F015C140913B0350913C036091370309
:100EC000709138038BE792E00E9438016AE271E08A
:100ED0008BE792E00E94FE02E0903B03F0903C031F
:100EE000E114F10409F08AC00FEF1FEF0F5F1F4FED
:100EF000E0903B03F0903C03E016F10628F4902FBD
:100F0000812F8701E92EF82E1BA21AA21DA21CA276
:100F10001FA21EA240E050E06CE271E0CE0182967A
:100F20000E94550380913B0390913C0308171907D9
:100F300008F484C08EA19FA1892B09F4B5C08AA1B1
:100F40009BA1009709F4B0C040E150E060E070E080
:100F50000E94260B6B017C0185E192E00E94130345
:100F6000F7FEA7C0E0917B02F0917C020190F08136
:100F7000E02D6DE28BE792E0099522273327A90146
:100F80002C193D094E095F0919A28E010F5D1F4FF3
:100F9000CA01B901A50194010E94530C605DF801DA
:100FA00062938F01211531054105510589F7B8017B
:100FB0008BE792E00E94FE026AE271E08BE792E02A
:100FC0000E94FE0240E050E06CE271E087E393E0B3
:100FD0000E9455038AA19BA10E949B0980913B031B
:100FE00090913C03892B09F09EC088E193E00E9418
:100FF000AB02181619060CF456CF50CFE091370308
:10100000F0913803EE0DFF1D70801082C090370301
:10101000D09038036CE270E0C6010E941B0B8C017B
:10102000F601EE0DFF1D7082892B09F45DCF8091D2
:10103000370390913803081B190B58CF8E159F0565
:1010400008F47C01E0913703F0913803EE0DFF1DA9
:10105000D08010826091370370913803600F711F48
:101060006115710569F0FB0101900020E9F73197E6
:10107000AF01461B570BCE0182960E9455030CC050
:101080008AA19BA1009711F00E949B091BA21AA2A2
:101090001FA21EA21DA21CA2E0913703F0913803EB
:1010A000EE0DFF1DD08246CF1092700280E792E0D5
:1010B0004BCFA701960119A28E010F5D1F4FCA01E8
:1010C000B901A50194010E94530C605DF80162937F
:1010D0008F01211531054105510589F768CF8983B5
:1010E0001A8200913B0310913C030F5F1F4FB80120
:1010F00087E393E00E942E03882309F46FCF2091A9
:1011000037033091380380913B0390913C03BE013B
:101110006F5F7F4F820F931F0E94140B10933C034D
:1011200000933B035BCF6CE172E0809137039091B9
:1011300038030E940B0B892B09F057CF10927102D4
:101140006FE172E08BE792E00E9418034ECF88E1D6
:1011500093E00E94AB02892B49F088E193E00E9462
:10116000C302682F8BE792E00E94CB018BE792E0ED
:101170000E949401892B49F08BE792E00E94720152
:10118000682F88E193E00E9457020E94340282CEC9
:101190008CE191E0909319038093180388E193E028
:1011A0000E94E40280913703909138030C949B09CC
:1011B00097FB072E16F4009407D077FD09D00E9404
:1011C000EC0807FC05D03EF4909581959F4F08955B
:1011D000709561957F4F0895AA1BBB1B51E107C015
:1011E000AA1FBB1FA617B70710F0A61BB70B881FB7
:1011F000991F5A95A9F780959095BC01CD01089546
:10120000EE0FFF1F0590F491E02D0994CF93DF932B
:101210008230910510F482E090E0E0913F03F0917C
:10122000400320E030E0C0E0D0E0309711F1408191
:10123000518148175907C0F04817590761F4828156
:101240009381209719F09B838A832BC0909340034E
:1012500080933F0326C02115310519F0421753072B
:1012600018F49A01BE01DF01EF010280F381E02D45
:10127000DCCF2115310509F1281B390B243031054C
:1012800090F412968D919C9113976115710521F040
:10129000FB019383828304C09093400380933F03B8
:1012A000FD01329644C0FD01E20FF31F819391933B
:1012B000225031092D933C933AC020913D03309147
:1012C0003E03232B41F4209102013091030130931E
:1012D0003E0320933D03209100013091010121152F
:1012E000310541F42DB73EB74091040150910501FD
:1012F000241B350BE0913D03F0913E03E217F30709
:10130000A0F42E1B3F0B2817390778F0AC014E5F75
:101310005F4F2417350748F04E0F5F1F50933E0371
:1013200040933D038193919302C0E0E0F0E0CF0150
:10133000DF91CF9108950F931F93CF93DF93009781
:1013400009F48CC0FC0132971382128200913F0392
:10135000109140030115110581F420813181820F24
:10136000931F20913D0330913E032817390779F5EB
:10137000F0933E03E0933D0371C0D80140E050E09C
:10138000AE17BF0750F412962D913C911397AD0103
:101390002115310509F1D901F3CF9D01DA0133831C
:1013A000228360817181860F971F8217930769F4EA
:1013B000EC0128813981260F371F2E5F3F4F318383
:1013C00020838A819B8193838283452B29F4F09328
:1013D0004003E0933F0342C01396FC93EE931297B1
:1013E000ED01499159919E01240F351FE217F30732
:1013F00071F480819181840F951F029611969C93C0
:101400008E938281938113969C938E931297E0E042
:10141000F0E0D80112968D919C911397009719F0E6
:10142000F8018C01F6CF8D919C9198012E5F3F4F72
:10143000820F931F20913D0330913E0328173907F7
:1014400069F4309729F41092400310923F0302C0D0
:101450001382128210933E0300933D03DF91CF91DC
:101460001F910F910895A0E0B0E0E9E3FAE00C9439
:10147000840CEC01009721F4CB010E940609B8C04E
:10148000FC01E60FF71F9C0122503109E217F30718
:1014900008F4ACC0D9010D911C91119706171707DC
:1014A000B0F00530110508F49FC0C80104978617F5
:1014B000970708F499C002501109061B170B0193F6
:1014C00011936D937C93CF010E949B098DC05B01AA
:1014D000A01AB10A4C01800E911EA0913F03B09159
:1014E000400340E050E0E12CF12C109709F44AC091
:1014F000A815B905D1F56D907C901197630182E034
:10150000C80ED11CCA14DB0480F1A3014A195B097F
:101510006A0182E0C80ED11C1296BC9012971396F5
:10152000AC91B5E0CB16D10440F0B282A3835183D5
:101530004083D9016D937C930AC00E5F1F4FC30196
:10154000800F911FF90191838083EB2DFA2FE11415
:10155000F10431F0D7011396FC93EE93129744C037
:10156000F0934003E0933F033FC08D919C9111970E
:101570004817590708F4AC017D0112960D90BC91F3
:10158000A02DB3CF80913D0390913E03881599051E
:10159000E1F446175707C8F48091000190910101CA
:1015A000009741F48DB79EB7409104015091050119
:1015B000841B950BE817F907C8F4F0933E03E093FA
:1015C0003D03F901718360830FC0CB010E940609BE
:1015D0007C01009759F0A801BE010E94020BCE01C8
:1015E0000E949B09C70104C0CE0102C080E090E0C8
:1015F000CDB7DEB7EEE00C94A00C81E090E0F8945B
:101600000C94C60CFB01DC0102C001900D9241500C
:101610005040D8F70895FB01DC018D9101908019AD
:101620000110D9F3990B0895FB01DC0101900D9293
:101630000020E1F70895FC0181E090E0019006169A
:1016400009F4CF010020D1F701970895A0E0B0E0A0
:10165000ECE2FBE00C94800C5C016B017A016115FB
:10166000710519F0FB0191838083E114F10429F0E5
:10167000C7010297839708F0F1C0E5012196F501B3
:101680001081812F90E00E94370C892B11F05E01B0
:10169000F4CF1D3229F42196F501118101E007C034
:1016A0001B3221F4E5012296F501118100E0E114DD
:1016B000F10459F1F0E1EF16F10461F41033E1F4B3
:1016C00088818F7D883569F519812296026070E1E5
:1016D000E72EF12C88E0E816F10439F12CF4F2E061
:1016E000EF16F104C9F12AC08AE0E816F10479F096
:1016F000E0E1EE16F10411F550E1E52EF12C812C1C
:10170000912CA12C68E0B62E2CC01033C9F23AE01F
:10171000E32EF12C4CEC842E982CA82C4CE0B42E0B
:1017200020C010E3E114F104A9F698E0E92EF12CB1
:10173000812C912CA12C20E1B22E13C060E070E02E
:1017400080E090E897010F2C000C440B550B0E9491
:10175000530C49015A0105C0812C912CA12C80E425
:10176000B82E60E020E030E0A90127010F2C000C2A
:10177000660877081E01E0EDE10FEA3060F08FEBBC
:10178000810F8A3110F4E9EC05C08FE9810F8A31AD
:1017900028F5E9EAE10F8E2F90E08E159F05F4F40D
:1017A00067FD18C082169306A406B50690F0C30123
:1017B000B2010E94430C9B01AC012E0F311D411D53
:1017C000511D213031054105F0E85F0710F461E05B
:1017D00001C06FEF2196F1011081CCCF802F817075
:1017E000C114D10471F0662329F02197F601D18349
:1017F000C08307C001FF19C02297F601D183C083BF
:1018000014C067FF12C0811105C02FEF3FEF4FEFEB
:101810005FE704C020E030E040E050E882E290E082
:10182000909342038093410316C0882341F0509562
:101830004095309521953F4F4F4F5F4F0CC057FF5C
:101840000AC082E290E090934203809341032FEF1D
:101850003FEF4FEF5FE7B901CA0104C060E070E0FD
:1018600080E090E0CDB7DEB7E2E10C949C0C9111E2
:101870000C94400C803219F089508550C8F70895B7
:10188000992788270895DB018F939F930E94750CF9
:10189000BF91AF91A29F800D911DA39F900DB29F0C
:1018A000900D11240895A1E21A2EAA1BBB1BFD0165
:1018B0000DC0AA1FBB1FEE1FFF1FA217B307E4072F
:1018C000F50720F0A21BB30BE40BF50B661F771F87
:1018D000881F991F1A9469F7609570958095909567
:1018E0009B01AC01BD01CF0108950E94B70CA59FDB
:1018F000900DB49F900DA49F800D911D112408950B
:101900002F923F924F925F926F927F928F929F920F
:10191000AF92BF92CF92DF92EF92FF920F931F93FD
:10192000CF93DF93CDB7DEB7CA1BDB0B0FB6F894AE
:10193000DEBF0FBECDBF09942A88398848885F84EE
:101940006E847D848C849B84AA84B984C884DF805F
:10195000EE80FD800C811B81AA81B981CE0FD11D43
:101960000FB6F894DEBF0FBECDBFED010895A29F64
:10197000B001B39FC001A39F700D811D1124911D63
:10198000B29F700D811D1124911D089510E0C2E6D3
:10199000D0E004C0FE010E9400092196C336D107A1
:0619A000C9F7F894FFCF27
:1019A60000004303800000000000CB013801630102
:1019B60012029401720186010000000057023801EC
:1019C600FB025602AB02C3023E020D0A000A425453
:1019D6002053544154453A200041542B535441540A
:1019E600453F000A4254204E414D453A200041549D
:1019F6002B4E414D453F000A4254204C4153542042
:101A0600434F4E4E45435445443A200041542B4DD6
:101A16005241443F000A425420434C4153533A201A
:101A26000041542B434C4153533F000A4254204338
:101A36004D4F44453A200041542B434D4F44453DBC
:101A460031000A425420524F4C453A200041542B53
:101A5600524F4C453D3000425420494E514D3A209C
:101A66000041542B494E514D3D312C39302C350017
:101A76000A425420494E49543A200041542B494EBB
:101A86004954000A466F756E64206465766963651D
:101A960073206E6561726279002D2D2D2D2D2D2DF1
:101AA6002D2D2D2D2D2D2D2D2D2D2D2D2D00415452
:101AB6002B494E5100525353493A20004F4B004494
:0C1AC6006F6E65206C6F6F70696E6700BA
:00000001FF
