:100000000C9463000C948B000C948B000C9468038C
:100010000C9468030C9468030C948B000C948B0074
:100020000C948B000C948B000C948B000C948B0024
:100030000C948B000C948B000C948B000C948B0014
:100040000C94C6020C948B000C9436030C94100391
:100050000C948B000C948B000C948B000C948B00F4
:100060000C948B000C948B0000000008000201002F
:100070000003040700000000000000000000000072
:10008000250028002B0000000000240027002A0083
:1000900000000000230026002900040404040404D6
:1000A0000404020202020202030303030303010227
:1000B00004081020408001020408102001020408F6
:1000C00010200A04F30611241FBECFEFD8E0DEBFD4
:1000D000CDBF11E0A0E0B1E0E2E0F3E102C00590A5
:1000E0000D92A43DB107D9F722E0A4EDB1E001C023
:1000F0001D92A73EB207E1F710E0C2E6D0E004C0CF
:100100002197FE010E942B07C136D107C9F70E9433
:1001100033050C9474090C94000090E0FC01E8593C
:10012000FF4F3491FC01E255FF4F2491FC01E6564C
:10013000FF4FE491EE2309F43BC0332339F1333010
:1001400091F038F43130A9F0323001F584B58F7D6B
:1001500012C0373091F03830A1F03430B9F48091CA
:1001600080008F7D03C0809180008F778093800016
:100170000DC084B58F7784BD09C08091B0008F77A2
:1001800003C08091B0008F7D8093B000F0E0EE0F4F
:10019000FF1FE458FF4FA591B4918FB7F894EC91ED
:1001A000611103C020952E2301C02E2B2C938FBFED
:1001B00008953FB7F89480911D0290911E02A0917E
:1001C0001F02B091200226B5A89B05C02F3F19F051
:1001D0000196A11DB11D3FBFBA2FA92F982F8827C7
:1001E000820F911DA11DB11DBC01CD0142E0660F22
:1001F000771F881F991F4A95D1F70895CF92DF92F4
:10020000EF92FF920F931F93CF93DF936C017A01CC
:100210008B01C0E0D0E0CE15DF0589F0D8016D91EB
:100220008D01D601ED91FC910190F081E02DC60188
:100230000995892B11F47E0102C02196ECCFC701EC
:10024000DF91CF911F910F91FF90EF90DF90CF90B2
:100250000895FC01538D448D252F30E0842F90E0CC
:10026000821B930B541710F0CF96089501970895B1
:10027000FC01918D828D981761F0828DDF01A80FAE
:10028000B11D5D968C91928D9F5F9F73928F90E0D0
:1002900008958FEF9FEF0895FC01918D828D98173F
:1002A00031F0828DE80FF11D858D90E008958FEF7C
:1002B0009FEF0895FC01918D228D892F90E0805C45
:1002C0009F4F821B91098F739927089581E292E0D5
:1002D0000E945A0121E0892B09F420E0822F089521
:1002E000FC01848DDF01A80FB11DA35ABF4F2C91D3
:1002F000848D90E001968F739927848FA689B789A2
:100300002C93A089B1898C9180648C93938D848D7A
:10031000981306C00288F389E02D80818F7D808349
:100320000895EF92FF920F931F93CF93DF93EC0109
:1003300081E0888F9B8D8C8D981305C0E889F989A1
:10034000808185FD24C0F62E0B8D10E00F5F1F4FBE
:100350000F731127E02E8C8DE8120CC00FB607FC2E
:10036000FACFE889F989808185FFF5CFCE010E9417
:100370007001F1CF8B8DFE01E80FF11DE35AFF4FA5
:10038000F0820B8FEA89FB898081806207C0EE8949
:10039000FF896083E889F98980818064808381E0B6
:1003A00090E0DF91CF911F910F91FF90EF90089512
:1003B000CF93DF93EC01888D8823C9F0EA89FB890C
:1003C000808185FD05C0A889B9898C9186FD0FC003
:1003D0000FB607FCF5CF808185FFF2CFA889B989D8
:1003E0008C9185FFEDCFCE010E947001E7CFDF91A8
:1003F000CF91089580E090E0892B29F00E9466015A
:1004000081110C940000089520911602309117027A
:100410002817390771F490911402809115029817EA
:1004200041F0E0911402F0E0EC52FE4F808190E048
:1004300008958FEF9FEF089508951F93CF93DF9353
:10044000DC015C962D913C915D972115310539F4C5
:1004500081E090E013969C938E9312973DC0519645
:10046000ED91FC91529750969C915097892F8095D1
:100470001FB75E964C915E9741FB772770F941FD5F
:100480006095F8944081772311F0492B01C04823EF
:100490004083E9012197F1F748E0508160FF02C0F5
:1004A000592B01C058235083E9012197F1F7669534
:1004B000415099F7772321F090818923808303C0ED
:1004C0008081982B90831FBF5C968D919C915D9746
:1004D0000197F1F721E030E0C901DF91CF911F9141
:1004E000089520911602309117022817390771F4E8
:1004F000809115022091140290E0805C9F4F821B36
:10050000910960E470E00E940307089580E090E0A4
:100510000895209116023091170228173907B9F46F
:100520009091140280911502981789F0E0911402BD
:10053000F0E0EC52FE4F80812091140230E02F5FFA
:100540003F4F2F7333272093140290E008958FEFCD
:100550009FEF0895E0911602F0911702E817F9074E
:1005600069F4A389B4899C918589809589238C93AA
:10057000109217021092160281E0089580E008950B
:10058000089580E090E008950E9428091F920F923C
:100590000FB60F9211242F933F938F939F93AF9396
:1005A000BF938091190290911A02A0911B02B09101
:1005B0001C023091180223E0230F2D3720F40196FE
:1005C000A11DB11D05C026E8230F0296A11DB11D76
:1005D000209318028093190290931A02A0931B0291
:1005E000B0931C0280911D0290911E02A0911F02E7
:1005F000B09120020196A11DB11D80931D02909320
:100600001E02A0931F02B0932002BF91AF919F9151
:100610008F913F912F910F900FBE0F901F901895C3
:100620001F920F920FB60F9211242F933F934F9367
:100630005F936F937F938F939F93AF93BF93EF934A
:10064000FF9381E292E00E947001FF91EF91BF91D0
:10065000AF919F918F917F916F915F914F913F915A
:100660002F910F900FBE0F901F9018951F920F9211
:100670000FB60F9211242F938F939F93EF93FF93B5
:10068000E0913102F09132028081E0913702F091E5
:10069000380282FD12C0908180913A028F5F8F7381
:1006A00020913B02821751F0E0913A02F0E0EF5DB9
:1006B000FD4F958F80933A0201C08081FF91EF91A9
:1006C0009F918F912F910F900FBE0F901F901895B3
:1006D0001F920F920FB60F9211242F933F934F93B7
:1006E0005F936F937F938F939F93AF93BF93EF939A
:1006F000FF93E0911602F0911702309709F451C070
:10070000968DA685B785858591FF04C09C91892328
:1007100029F447C09C91892309F043C0A389B48977
:100720009C918589809589238C93868997890197E7
:10073000F1F7608D718DA685B785558538E020E08D
:10074000CB010197F1F7822F90E095958795282F9F
:100750004C91452309F02068315091F7868D81FD39
:1007600020958091150290E001968F739927309122
:100770001402381749F0A0911502B0E0AC52BE4FF8
:100780002C938093150203C0868D8160868F828DA5
:10079000938D0197F1F7A389B4899C918589892B61
:1007A0008C93FF91EF91BF91AF919F918F917F912A
:1007B0006F915F914F913F912F910F900FBE0F90CE
:1007C0001F9018956115710579F0FB0101900020CB
:1007D000E9F73197AF01461B570BDC01ED91FC9116
:1007E0000280F381E02D099480E090E00895CF939A
:1007F000DF93BC018EEB92E00E94E203EC016AE21F
:1008000071E08EEB92E00E94E2038C0F9D1FDF915E
:10081000CF910895CF93DF93109224021092230278
:1008200088EE93E0A0E0B0E080932502909326024A
:10083000A0932702B09328028AE091E090932202CD
:100840008093210285EC90E090932E0280932D02FC
:1008500084EC90E09093300280932F0280EC90E043
:10086000909332028093310281EC90E090933402B5
:100870008093330282EC90E09093360280933502AD
:1008800086EC90E0909338028093370210923A02FF
:1008900010923B0210923C0210923D021092DE0236
:1008A0001092DD021092E0021092DF021092E2023A
:1008B0001092E10261E070E080E090E00E945E084A
:1008C000009791F09093DE028093DD021092E00297
:1008D0001092DF022091E1023091E202232B09F015
:1008E000B9C0FC011082B6C08091DD029091DE0299
:1008F000009711F00E94C6071092DE021092DD02EE
:100900001092E2021092E1021092E0021092DF02D5
:100910001092C1021092C00288EE93E0A0E0B0E015
:100920008093C2029093C302A093C402B093C50205
:100930008CE191E09093BF028093BE021092D502A9
:100940001092D4021092D7021092D6021092D902BD
:100950001092D8021092DB021092DA026091DC024F
:100960006E7F6D7F6093DC026695617081E0682721
:1009700086E00E948D00E4EBF0E02491E0EAF0E0F4
:100980008491882399F090E0880F991FFC01EA5721
:10099000FF4FA591B491FC01E458FF4F85919491CC
:1009A0008FB7F894EC91E22BEC938FBFE4EBF0E07F
:1009B000E491E093CE02E0EAF0E0E491F0E0EE0FA3
:1009C000FF1FE458FF4F859194919093D00280933C
:1009D000CF02E3EBF0E02491EFE9F0E0849188238B
:1009E000C1F090E0880F991FFC01EA57FF4FC591B5
:1009F000D491FC01E458FF4FA591B4919FB7F894AE
:100A00008881E22FE0958E2388838C91E823EC93F4
:100A10009FBF8091DC0281FD04C061E085E00E94FF
:100A20008D0085E08093CA02E3EBF0E0E491E0936F
:100A3000CB02EFE9F0E0E491F0E0EE0FFF1FE057AA
:100A4000FF4F859194919093CD028093CC02DF91DA
:100A5000CF9108951092E2021092E1026CE271E0EF
:100A60000E94360955CF789484B5826084BD84B5E0
:100A7000816084BD85B5826085BD85B5816085BD99
:100A800080916E00816080936E0010928100809151
:100A900081008260809381008091810081608093D9
:100AA0008100809180008160809380008091B100FE
:100AB00084608093B1008091B00081608093B00029
:100AC00080917A00846080937A0080917A008260BD
:100AD00080937A0080917A00816080937A0080917F
:100AE0007A00806880937A001092C100E091310210
:100AF000F091320282E08083E0912D02F0912E028B
:100B00001082E0912F02F09130028FEC80831092DE
:100B10003902E0913502F091360286E08083E0915F
:100B20003302F0913402808180618083E09133024E
:100B3000F0913402808188608083E0913302F091EB
:100B40003402808180688083E0913302F091340226
:100B500080818F7D80831092D9021092D8021092EA
:100B6000D7021092D6021092D5021092D40285E6D6
:100B700090E09093DB028093DA029091CA02963162
:100B800008F057C021E230E03093D5022093D40220
:100B900023E630E03093D7022093D60222E430E0FF
:100BA0003093D9022093D80220916800983050F0F9
:100BB00031E09E3008F430E081E001C0880F3A95C2
:100BC000EAF701C084E0822B80936800983038F007
:100BD0009E3040F0963148F020E030E008C02DE62D
:100BE00030E005C02BE630E002C02CE630E0309368
:100BF000D2022093D102983030F481E001C0880FF6
:100C00009A95EAF70EC0292F30E09E3018F428504C
:100C1000310902C02E50310981E001C0880F2A95A8
:100C2000EAF78093D3028091DA029091DB02019778
:100C3000F1F78091D8029091D902892B21F180910E
:100C400016029091170222E08E3B9207E1F0009786
:100C500011F00E94AA028091DC028E7F8093DC0258
:100C600010921502109214028EEB92E090931702EC
:100C700080931602E091D102F091D202908180918E
:100C8000D302892B8083C0E0D0E0209749F46DE245
:100C900071E081E292E00E94E20389E391E044C0C6
:100CA000C130D10549F463E471E081E292E00E9431
:100CB000E2038EE491E038C0C230D10549F46EE51C
:100CC00071E081E292E00E94E20383E791E02CC0B0
:100CD000C330D10549F46CE771E081E292E00E94F3
:100CE000E20388E891E020C0C430D10549F464E90A
:100CF00071E081E292E00E94E20380EA91E014C098
:100D0000C530D10549F46BEA71E081E292E00E94BE
:100D1000E20386EB91E008C060EC71E081E292E0D2
:100D20000E94E2038BEC91E00E94F7030E94D9003D
:100D30004B015C0184EFC82EDD24D394E12CF12C0F
:100D40000E94D900DC01CB0188199909AA09BB09C5
:100D5000883E9340A105B10558F081E0C81AD1083A
:100D6000E108F10828EE820E23E0921EA11CB11CBE
:100D7000C114D104E104F10419F78EEB92E00E9452
:100D80007102892B51F08EEB92E00E948902682F4C
:100D900081E292E00E949101F0CF2196C730D10507
:100DA00009F073CF8EEB92E00E947102892B49F01B
:100DB0008EEB92E00E948902682F81E292E00E940D
:100DC000910181E292E00E945A01892B49F081E26F
:100DD00092E00E943801682F8EEB92E00E941D0283
:100DE0000E94FA01DFCF8CE191E09093BF028093E3
:100DF000BE028EEB92E00E94AA028091DD029091E9
:100E0000DE020C94C60797FB072E16F4009407D059
:100E100077FD09D00E94170707FC05D03EF4909596
:100E200081959F4F0895709561957F4F0895AA1BF6
:100E3000BB1B51E107C0AA1FBB1FA617B70710F0C5
:100E4000A61BB70B881F991F5A95A9F780959095F7
:100E5000BC01CD010895EE0FFF1F0590F491E02D28
:100E60000994CF93DF938230910510F482E090E0F3
:100E7000E091E502F091E60220E030E0C0E0D0E051
:100E8000309711F14081518148175907C0F0481738
:100E9000590761F482819381209719F09B838A839B
:100EA0002BC09093E6028093E50226C02115310500
:100EB00019F04217530718F49A01BE01DF01EF0140
:100EC0000280F381E02DDCCF2115310509F1281BCB
:100ED000390B2430310590F412968D919C91139723
:100EE0006115710521F0FB019383828304C0909307
:100EF000E6028093E502FD01329644C0FD01E20F57
:100F0000F31F81939193225031092D933C933AC062
:100F10002091E3023091E402232B41F4209102015D
:100F2000309103013093E4022093E3022091000109
:100F3000309101012115310541F42DB73EB74091A3
:100F4000040150910501241B350BE091E302F0915F
:100F5000E402E217F307A0F42E1B3F0B2817390712
:100F600078F0AC014E5F5F4F2417350748F04E0F05
:100F70005F1F5093E4024093E3028193919302C078
:100F8000E0E0F0E0CF01DF91CF9108950F931F9340
:100F9000CF93DF93009709F48CC0FC013297138242
:100FA00012820091E5021091E6020115110581F40B
:100FB00020813181820F931F2091E3023091E4025E
:100FC0002817390779F5F093E402E093E30271C042
:100FD000D80140E050E0AE17BF0750F412962D91B3
:100FE0003C911397AD012115310509F1D901F3CFDA
:100FF0009D01DA013383228360817181860F971FFF
:101000008217930769F4EC0128813981260F371F75
:101010002E5F3F4F318320838A819B81938382831C
:10102000452B29F4F093E602E093E50242C01396C3
:10103000FC93EE931297ED01499159919E01240F73
:10104000351FE217F30771F480819181840F951F9A
:10105000029611969C938E938281938113969C9312
:101060008E931297E0E0F0E0D80112968D919C915A
:101070001397009719F0F8018C01F6CF8D919C9190
:1010800098012E5F3F4F820F931F2091E302309112
:10109000E4022817390769F4309729F41092E60220
:1010A0001092E50202C0138212821093E4020093B0
:1010B000E302DF91CF911F910F910895A0E0B0E07E
:1010C000E4E6F8E00C944109EC01009721F4CB012F
:1010D0000E943107B8C0FC01E60FF71F9C012250A7
:1010E0003109E217F30708F4ACC0D9010D911C9146
:1010F000119706171707B0F00530110508F49FC0C7
:10110000C80104978617970708F499C0025011097F
:10111000061B170B019311936D937C93CF010E94D3
:10112000C6078DC05B01A01AB10A4C01800E911E4A
:10113000A091E502B091E60240E050E0E12CF12CF4
:10114000109709F44AC0A815B905D1F56D907C90A7
:101150001197630182E0C80ED11CCA14DB0480F130
:10116000A3014A195B096A0182E0C80ED11C1296DC
:10117000BC9012971396AC91B5E0CB16D10440F019
:10118000B282A38351834083D9016D937C930AC0BB
:101190000E5F1F4FC301800F911FF9019183808360
:1011A000EB2DFA2FE114F10431F0D7011396FC93E3
:1011B000EE93129744C0F093E602E093E5023FC03D
:1011C0008D919C9111974817590708F4AC017D0146
:1011D00012960D90BC91A02DB3CF8091E302909117
:1011E000E40288159905E1F446175707C8F4809181
:1011F000000190910101009741F48DB79EB7409195
:10120000040150910501841B950BE817F907C8F4F8
:10121000F093E402E093E302F901718360830FC06D
:10122000CB010E9431077C01009759F0A801BE0153
:101230000E942D09CE010E94C607C70104C0CE013D
:1012400002C080E090E0CDB7DEB7EEE00C945D091F
:1012500081E090E0F8940C947409FB01DC0102C079
:1012600001900D9241505040D8F70895FB01DC01E8
:1012700001900D920020E1F708952F923F924F9236
:101280005F926F927F928F929F92AF92BF92CF9216
:10129000DF92EF92FF920F931F93CF93DF93CDB71F
:1012A000DEB7CA1BDB0B0FB6F894DEBF0FBECDBF97
:1012B00009942A88398848885F846E847D848C8468
:1012C0009B84AA84B984C884DF80EE80FD800C8171
:1012D0001B81AA81B981CE0FD11D0FB6F894DEBF54
:1012E0000FBECDBFED01089510E0C2E6D0E004C00E
:1012F000FE010E942B072196C336D107C9F7F89447
:02130000FFCF1D
:101302000000E7028000000000009101FE002901B8
:10131200D8015A0138014C01000000001D02FE00F4
:10132200C1021C027102890204020D0A000A42541F
:101332002053544154453A200041542B53544154B4
:10134200453F000A4254204E414D453A2000415447
:101352002B4E414D453D426561636F6E31000A423D
:1013620054204C41535420434F4E4E454354454420
:101372003A200041542B4D5241443F000A4254202E
:10138200434C4153533A200041542B434C41535355
:101392003D3136000A425420434D4F44453A200025
:1013A20041542B434D4F44453D30000A4254205294
:1013B2004F4C453A200041542B524F4C453D300092
:1013C2000A425420494E49543A200041542B494E76
:0413D200495400007A
:00000001FF
